{
  "_format": "hh-sol-artifact-1",
  "contractName": "NFTMarketplace",
  "sourceName": "contracts/NFTMarketplace.sol",
  "abi": [
    {
      "inputs": [],
      "stateMutability": "nonpayable",
      "type": "constructor"
    },
    {
      "anonymous": false,
      "inputs": [
        {
          "indexed": true,
          "internalType": "address",
          "name": "owner",
          "type": "address"
        },
        {
          "indexed": true,
          "internalType": "address",
          "name": "approved",
          "type": "address"
        },
        {
          "indexed": true,
          "internalType": "uint256",
          "name": "tokenId",
          "type": "uint256"
        }
      ],
      "name": "Approval",
      "type": "event"
    },
    {
      "anonymous": false,
      "inputs": [
        {
          "indexed": true,
          "internalType": "address",
          "name": "owner",
          "type": "address"
        },
        {
          "indexed": true,
          "internalType": "address",
          "name": "operator",
          "type": "address"
        },
        {
          "indexed": false,
          "internalType": "bool",
          "name": "approved",
          "type": "bool"
        }
      ],
      "name": "ApprovalForAll",
      "type": "event"
    },
    {
      "anonymous": false,
      "inputs": [
        {
          "indexed": true,
          "internalType": "uint256",
          "name": "tokenId",
          "type": "uint256"
        },
        {
          "indexed": false,
          "internalType": "address",
          "name": "seller",
          "type": "address"
        },
        {
          "indexed": false,
          "internalType": "address",
          "name": "owner",
          "type": "address"
        },
        {
          "indexed": false,
          "internalType": "uint256",
          "name": "price",
          "type": "uint256"
        },
        {
          "indexed": false,
          "internalType": "bool",
          "name": "sold",
          "type": "bool"
        }
      ],
      "name": "MarketItemCreated",
      "type": "event"
    },
    {
      "anonymous": false,
      "inputs": [
        {
          "indexed": true,
          "internalType": "address",
          "name": "from",
          "type": "address"
        },
        {
          "indexed": true,
          "internalType": "address",
          "name": "to",
          "type": "address"
        },
        {
          "indexed": true,
          "internalType": "uint256",
          "name": "tokenId",
          "type": "uint256"
        }
      ],
      "name": "Transfer",
      "type": "event"
    },
    {
      "inputs": [
        {
          "internalType": "address",
          "name": "to",
          "type": "address"
        },
        {
          "internalType": "uint256",
          "name": "tokenId",
          "type": "uint256"
        }
      ],
      "name": "approve",
      "outputs": [],
      "stateMutability": "nonpayable",
      "type": "function"
    },
    {
      "inputs": [
        {
          "internalType": "address",
          "name": "owner",
          "type": "address"
        }
      ],
      "name": "balanceOf",
      "outputs": [
        {
          "internalType": "uint256",
          "name": "",
          "type": "uint256"
        }
      ],
      "stateMutability": "view",
      "type": "function"
    },
    {
      "inputs": [
        {
          "internalType": "uint256",
          "name": "tokenId",
          "type": "uint256"
        },
        {
          "internalType": "uint256",
          "name": "price",
          "type": "uint256"
        }
      ],
      "name": "createMarketItem",
      "outputs": [],
      "stateMutability": "payable",
      "type": "function"
    },
    {
      "inputs": [
        {
          "internalType": "uint256",
          "name": "tokenId",
          "type": "uint256"
        }
      ],
      "name": "createMarketSale",
      "outputs": [],
      "stateMutability": "payable",
      "type": "function"
    },
    {
      "inputs": [
        {
          "internalType": "string",
          "name": "tokenURI",
          "type": "string"
        },
        {
          "internalType": "uint256",
          "name": "price",
          "type": "uint256"
        }
      ],
      "name": "createToken",
      "outputs": [
        {
          "internalType": "uint256",
          "name": "",
          "type": "uint256"
        }
      ],
      "stateMutability": "payable",
      "type": "function"
    },
    {
      "inputs": [],
      "name": "fetchItemsListed",
      "outputs": [
        {
          "components": [
            {
              "internalType": "uint256",
              "name": "tokenId",
              "type": "uint256"
            },
            {
              "internalType": "address payable",
              "name": "seller",
              "type": "address"
            },
            {
              "internalType": "address payable",
              "name": "owner",
              "type": "address"
            },
            {
              "internalType": "uint256",
              "name": "price",
              "type": "uint256"
            },
            {
              "internalType": "bool",
              "name": "sold",
              "type": "bool"
            }
          ],
          "internalType": "struct NFTMarketplace.MarketItem[]",
          "name": "",
          "type": "tuple[]"
        }
      ],
      "stateMutability": "view",
      "type": "function"
    },
    {
      "inputs": [],
      "name": "fetchMarketItems",
      "outputs": [
        {
          "components": [
            {
              "internalType": "uint256",
              "name": "tokenId",
              "type": "uint256"
            },
            {
              "internalType": "address payable",
              "name": "seller",
              "type": "address"
            },
            {
              "internalType": "address payable",
              "name": "owner",
              "type": "address"
            },
            {
              "internalType": "uint256",
              "name": "price",
              "type": "uint256"
            },
            {
              "internalType": "bool",
              "name": "sold",
              "type": "bool"
            }
          ],
          "internalType": "struct NFTMarketplace.MarketItem[]",
          "name": "",
          "type": "tuple[]"
        }
      ],
      "stateMutability": "view",
      "type": "function"
    },
    {
      "inputs": [],
      "name": "fetchMyNFTs",
      "outputs": [
        {
          "components": [
            {
              "internalType": "uint256",
              "name": "tokenId",
              "type": "uint256"
            },
            {
              "internalType": "address payable",
              "name": "seller",
              "type": "address"
            },
            {
              "internalType": "address payable",
              "name": "owner",
              "type": "address"
            },
            {
              "internalType": "uint256",
              "name": "price",
              "type": "uint256"
            },
            {
              "internalType": "bool",
              "name": "sold",
              "type": "bool"
            }
          ],
          "internalType": "struct NFTMarketplace.MarketItem[]",
          "name": "",
          "type": "tuple[]"
        }
      ],
      "stateMutability": "view",
      "type": "function"
    },
    {
      "inputs": [
        {
          "internalType": "uint256",
          "name": "tokenId",
          "type": "uint256"
        }
      ],
      "name": "getApproved",
      "outputs": [
        {
          "internalType": "address",
          "name": "",
          "type": "address"
        }
      ],
      "stateMutability": "view",
      "type": "function"
    },
    {
      "inputs": [],
      "name": "getListingPrice",
      "outputs": [
        {
          "internalType": "uint256",
          "name": "",
          "type": "uint256"
        }
      ],
      "stateMutability": "view",
      "type": "function"
    },
    {
      "inputs": [
        {
          "internalType": "address",
          "name": "owner",
          "type": "address"
        },
        {
          "internalType": "address",
          "name": "operator",
          "type": "address"
        }
      ],
      "name": "isApprovedForAll",
      "outputs": [
        {
          "internalType": "bool",
          "name": "",
          "type": "bool"
        }
      ],
      "stateMutability": "view",
      "type": "function"
    },
    {
      "inputs": [],
      "name": "name",
      "outputs": [
        {
          "internalType": "string",
          "name": "",
          "type": "string"
        }
      ],
      "stateMutability": "view",
      "type": "function"
    },
    {
      "inputs": [
        {
          "internalType": "uint256",
          "name": "tokenId",
          "type": "uint256"
        }
      ],
      "name": "ownerOf",
      "outputs": [
        {
          "internalType": "address",
          "name": "",
          "type": "address"
        }
      ],
      "stateMutability": "view",
      "type": "function"
    },
    {
      "inputs": [
        {
          "internalType": "uint256",
          "name": "tokenId",
          "type": "uint256"
        },
        {
          "internalType": "uint256",
          "name": "price",
          "type": "uint256"
        }
      ],
      "name": "resellToken",
      "outputs": [],
      "stateMutability": "payable",
      "type": "function"
    },
    {
      "inputs": [
        {
          "internalType": "address",
          "name": "from",
          "type": "address"
        },
        {
          "internalType": "address",
          "name": "to",
          "type": "address"
        },
        {
          "internalType": "uint256",
          "name": "tokenId",
          "type": "uint256"
        }
      ],
      "name": "safeTransferFrom",
      "outputs": [],
      "stateMutability": "nonpayable",
      "type": "function"
    },
    {
      "inputs": [
        {
          "internalType": "address",
          "name": "from",
          "type": "address"
        },
        {
          "internalType": "address",
          "name": "to",
          "type": "address"
        },
        {
          "internalType": "uint256",
          "name": "tokenId",
          "type": "uint256"
        },
        {
          "internalType": "bytes",
          "name": "_data",
          "type": "bytes"
        }
      ],
      "name": "safeTransferFrom",
      "outputs": [],
      "stateMutability": "nonpayable",
      "type": "function"
    },
    {
      "inputs": [
        {
          "internalType": "address",
          "name": "operator",
          "type": "address"
        },
        {
          "internalType": "bool",
          "name": "approved",
          "type": "bool"
        }
      ],
      "name": "setApprovalForAll",
      "outputs": [],
      "stateMutability": "nonpayable",
      "type": "function"
    },
    {
      "inputs": [
        {
          "internalType": "bytes4",
          "name": "interfaceId",
          "type": "bytes4"
        }
      ],
      "name": "supportsInterface",
      "outputs": [
        {
          "internalType": "bool",
          "name": "",
          "type": "bool"
        }
      ],
      "stateMutability": "view",
      "type": "function"
    },
    {
      "inputs": [],
      "name": "symbol",
      "outputs": [
        {
          "internalType": "string",
          "name": "",
          "type": "string"
        }
      ],
      "stateMutability": "view",
      "type": "function"
    },
    {
      "inputs": [
        {
          "internalType": "uint256",
          "name": "tokenId",
          "type": "uint256"
        }
      ],
      "name": "tokenURI",
      "outputs": [
        {
          "internalType": "string",
          "name": "",
          "type": "string"
        }
      ],
      "stateMutability": "view",
      "type": "function"
    },
    {
      "inputs": [
        {
          "internalType": "address",
          "name": "from",
          "type": "address"
        },
        {
          "internalType": "address",
          "name": "to",
          "type": "address"
        },
        {
          "internalType": "uint256",
          "name": "tokenId",
          "type": "uint256"
        }
      ],
      "name": "transferFrom",
      "outputs": [],
      "stateMutability": "nonpayable",
      "type": "function"
    },
    {
      "inputs": [
        {
          "internalType": "uint256",
          "name": "_listingPrice",
          "type": "uint256"
        }
      ],
      "name": "updateListingPrice",
      "outputs": [],
      "stateMutability": "payable",
      "type": "function"
    }
  ],
  "bytecode": "0x60806040526658d15e176280006009553480156200001c57600080fd5b506040805180820182526006815265544f5251554560d01b602080830191825283518085019094526004845263544f525160e01b908401528151919291620000679160009162000098565b5080516200007d90600190602084019062000098565b5050600a80546001600160a01b03191633179055506200017b565b828054620000a6906200013e565b90600052602060002090601f016020900481019282620000ca576000855562000115565b82601f10620000e557805160ff191683800117855562000115565b8280016001018555821562000115579182015b8281111562000115578251825591602001919060010190620000f8565b506200012392915062000127565b5090565b5b8082111562000123576000815560010162000128565b600181811c908216806200015357607f821691505b602082108114156200017557634e487b7160e01b600052602260045260246000fd5b50919050565b612407806200018b6000396000f3fe6080604052600436106101355760003560e01c80636352211e116100ab578063ae677aa31161006f578063ae677aa314610331578063b88d4fde14610344578063be9af53614610364578063c87b56dd14610377578063e219fc7514610397578063e985e9c5146103aa57600080fd5b80636352211e146102a957806370a08231146102c957806372b3b620146102e957806395d89b41146102fc578063a22cb4651461031157600080fd5b806312e85585116100fd57806312e855851461020d578063202e37401461022c57806323b872dd14610241578063361c19951461026157806342842e0e1461027457806345f8fa801461029457600080fd5b806301ffc9a71461013a57806306fdde031461016f578063081812fc14610191578063095ea7b3146101c95780630f08efe0146101eb575b600080fd5b34801561014657600080fd5b5061015a610155366004611fc8565b6103f3565b60405190151581526020015b60405180910390f35b34801561017b57600080fd5b50610184610445565b60405161016691906121a3565b34801561019d57600080fd5b506101b16101ac366004612056565b6104d7565b6040516001600160a01b039091168152602001610166565b3480156101d557600080fd5b506101e96101e4366004611f9f565b610564565b005b3480156101f757600080fd5b5061020061067a565b6040516101669190612127565b34801561021957600080fd5b506009545b604051908152602001610166565b34801561023857600080fd5b5061020061082e565b34801561024d57600080fd5b506101e961025c366004611eb1565b610a20565b6101e961026f36600461206e565b610a51565b34801561028057600080fd5b506101e961028f366004611eb1565b610ba7565b3480156102a057600080fd5b50610200610bc2565b3480156102b557600080fd5b506101b16102c4366004612056565b610db4565b3480156102d557600080fd5b5061021e6102e4366004611e65565b610e2b565b61021e6102f7366004612000565b610eb2565b34801561030857600080fd5b50610184610f75565b34801561031d57600080fd5b506101e961032c366004611f65565b610f84565b6101e961033f366004612056565b610f93565b34801561035057600080fd5b506101e961035f366004611eec565b61100b565b6101e9610372366004612056565b611043565b34801561038357600080fd5b50610184610392366004612056565b6111a8565b6101e96103a536600461206e565b61131f565b3480156103b657600080fd5b5061015a6103c5366004611e7f565b6001600160a01b03918216600090815260056020908152604080832093909416825291909152205460ff1690565b60006001600160e01b031982166380ac58cd60e01b148061042457506001600160e01b03198216635b5e139f60e01b145b8061043f57506301ffc9a760e01b6001600160e01b03198316145b92915050565b6060600080546104549061230c565b80601f01602080910402602001604051908101604052809291908181526020018280546104809061230c565b80156104cd5780601f106104a2576101008083540402835291602001916104cd565b820191906000526020600020905b8154815290600101906020018083116104b057829003601f168201915b5050505050905090565b60006104e282611417565b6105485760405162461bcd60e51b815260206004820152602c60248201527f4552433732313a20617070726f76656420717565727920666f72206e6f6e657860448201526b34b9ba32b73a103a37b5b2b760a11b60648201526084015b60405180910390fd5b506000908152600460205260409020546001600160a01b031690565b600061056f82610db4565b9050806001600160a01b0316836001600160a01b031614156105dd5760405162461bcd60e51b815260206004820152602160248201527f4552433732313a20617070726f76616c20746f2063757272656e74206f776e656044820152603960f91b606482015260840161053f565b336001600160a01b03821614806105f957506105f981336103c5565b61066b5760405162461bcd60e51b815260206004820152603860248201527f4552433732313a20617070726f76652063616c6c6572206973206e6f74206f7760448201527f6e6572206e6f7220617070726f76656420666f7220616c6c0000000000000000606482015260840161053f565b6106758383611434565b505050565b6060600061068760075490565b9050600061069460085490565b6007546106a191906122c9565b90506000808267ffffffffffffffff8111156106cd57634e487b7160e01b600052604160045260246000fd5b60405190808252806020026020018201604052801561072657816020015b6040805160a0810182526000808252602080830182905292820181905260608201819052608082015282526000199092019101816106eb5790505b50905060005b848110156108255730600b600061074484600161229d565b81526020810191909152604001600020600201546001600160a01b0316141561081357600061077482600161229d565b6000818152600b6020908152604091829020825160a0810184528154815260018201546001600160a01b039081169382019390935260028201549092169282019290925260038201546060820152600482015460ff1615156080820152855192935090918590879081106107f857634e487b7160e01b600052603260045260246000fd5b602090810291909101015261080e60018661229d565b945050505b8061081d81612347565b91505061072c565b50949350505050565b6060600061083b60075490565b905060008060005b8381101561089e5733600b600061085b84600161229d565b81526020810191909152604001600020600201546001600160a01b0316141561088c5761088960018461229d565b92505b8061089681612347565b915050610843565b5060008267ffffffffffffffff8111156108c857634e487b7160e01b600052604160045260246000fd5b60405190808252806020026020018201604052801561092157816020015b6040805160a0810182526000808252602080830182905292820181905260608201819052608082015282526000199092019101816108e65790505b50905060005b848110156108255733600b600061093f84600161229d565b81526020810191909152604001600020600201546001600160a01b03161415610a0e57600061096f82600161229d565b6000818152600b6020908152604091829020825160a0810184528154815260018201546001600160a01b039081169382019390935260028201549092169282019290925260038201546060820152600482015460ff1615156080820152855192935090918590879081106109f357634e487b7160e01b600052603260045260246000fd5b6020908102919091010152610a0960018661229d565b945050505b80610a1881612347565b915050610927565b610a2a33826114a2565b610a465760405162461bcd60e51b815260040161053f9061224c565b610675838383611588565b60008111610aa15760405162461bcd60e51b815260206004820152601c60248201527f5072696365206d757374206265206174206c6561737420312077656900000000604482015260640161053f565b6009543414610ac25760405162461bcd60e51b815260040161053f90612208565b6040805160a08101825283815233602080830182815230848601818152606086018881526000608088018181528b8252600b909652979097209551865591516001860180546001600160a01b03199081166001600160a01b0393841617909155925160028701805490941691161790915593516003840155516004909201805460ff191692151592909217909155610b5a9184611588565b604080513381523060208201529081018290526000606082015282907fb640004f1d14576d0c209e240cad0410e0d8c0c33a09375861fbadae2588a98d9060800160405180910390a25050565b6106758383836040518060200160405280600081525061100b565b60606000610bcf60075490565b905060008060005b83811015610c325733600b6000610bef84600161229d565b81526020810191909152604001600020600101546001600160a01b03161415610c2057610c1d60018461229d565b92505b80610c2a81612347565b915050610bd7565b5060008267ffffffffffffffff811115610c5c57634e487b7160e01b600052604160045260246000fd5b604051908082528060200260200182016040528015610cb557816020015b6040805160a081018252600080825260208083018290529282018190526060820181905260808201528252600019909201910181610c7a5790505b50905060005b848110156108255733600b6000610cd384600161229d565b81526020810191909152604001600020600101546001600160a01b03161415610da2576000610d0382600161229d565b6000818152600b6020908152604091829020825160a0810184528154815260018201546001600160a01b039081169382019390935260028201549092169282019290925260038201546060820152600482015460ff161515608082015285519293509091859087908110610d8757634e487b7160e01b600052603260045260246000fd5b6020908102919091010152610d9d60018661229d565b945050505b80610dac81612347565b915050610cbb565b6000818152600260205260408120546001600160a01b03168061043f5760405162461bcd60e51b815260206004820152602960248201527f4552433732313a206f776e657220717565727920666f72206e6f6e657869737460448201526832b73a103a37b5b2b760b91b606482015260840161053f565b60006001600160a01b038216610e965760405162461bcd60e51b815260206004820152602a60248201527f4552433732313a2062616c616e636520717565727920666f7220746865207a65604482015269726f206164647265737360b01b606482015260840161053f565b506001600160a01b031660009081526003602052604090205490565b6000610ec2600780546001019055565b6000610ecd60075490565b9050610ed93382611724565b610ee38185611857565b6040805160a08101825282815233602080830182815283850192835260608401978852600060808501818152878252600b909352949094209251835592516001830180546001600160a01b03199081166001600160a01b03938416179091559151600284018054909316911617905593516003850155516004909301805460ff19169315159390931790925550919050565b6060600180546104549061230c565b610f8f3383836118e2565b5050565b600a546001600160a01b031633146110065760405162461bcd60e51b815260206004820152603060248201527f4f6e6c79206d61726b6574706c616365206f776e65722063616e20757064617460448201526f32903634b9ba34b73390383934b1b29760811b606482015260840161053f565b600955565b61101533836114a2565b6110315760405162461bcd60e51b815260040161053f9061224c565b61103d848484846119b1565b50505050565b6000818152600b6020526040902060038101546001909101546001600160a01b03163482146110dc576040805162461bcd60e51b81526020600482015260248101919091527f506c65617365207375626d6974207468652061736b696e67207072696365206960448201527f6e206f7264657220746f20636f6d706c65746520746865207075726368617365606482015260840161053f565b6000838152600b602052604090206002810180546001600160a01b0319908116331790915560048201805460ff191660019081179091559091018054909116905561112b600880546001019055565b611136303385611588565b600a546009546040516001600160a01b039092169181156108fc0291906000818181858888f19350505050158015611172573d6000803e3d6000fd5b506040516001600160a01b038216903480156108fc02916000818181858888f1935050505015801561103d573d6000803e3d6000fd5b60606111b382611417565b6112195760405162461bcd60e51b815260206004820152603160248201527f45524337323155524953746f726167653a2055524920717565727920666f72206044820152703737b732bc34b9ba32b73a103a37b5b2b760791b606482015260840161053f565b600082815260066020526040812080546112329061230c565b80601f016020809104026020016040519081016040528092919081815260200182805461125e9061230c565b80156112ab5780601f10611280576101008083540402835291602001916112ab565b820191906000526020600020905b81548152906001019060200180831161128e57829003601f168201915b5050505050905060006112c960408051602081019091526000815290565b90508051600014156112dc575092915050565b81511561130e5780826040516020016112f69291906120bb565b60405160208183030381529060405292505050919050565b611317846119e4565b949350505050565b6000828152600b60205260409020600201546001600160a01b0316331461139b5760405162461bcd60e51b815260206004820152602a60248201527f4f6e6c79206974656d206f776e65722063616e20706572666f726d20746869736044820152691037b832b930ba34b7b760b11b606482015260840161053f565b60095434146113bc5760405162461bcd60e51b815260040161053f90612208565b6000828152600b6020526040902060048101805460ff19169055600381018290556001810180546001600160a01b03199081163317909155600290910180549091163017905561140c6008611abc565b610f8f333084611588565b6000908152600260205260409020546001600160a01b0316151590565b600081815260046020526040902080546001600160a01b0319166001600160a01b038416908117909155819061146982610db4565b6001600160a01b03167f8c5be1e5ebec7d5bd14f71427d1e84f3dd0314c0f7b2291e5b200ac8c7c3b92560405160405180910390a45050565b60006114ad82611417565b61150e5760405162461bcd60e51b815260206004820152602c60248201527f4552433732313a206f70657261746f7220717565727920666f72206e6f6e657860448201526b34b9ba32b73a103a37b5b2b760a11b606482015260840161053f565b600061151983610db4565b9050806001600160a01b0316846001600160a01b031614806115545750836001600160a01b0316611549846104d7565b6001600160a01b0316145b8061131757506001600160a01b0380821660009081526005602090815260408083209388168352929052205460ff16611317565b826001600160a01b031661159b82610db4565b6001600160a01b0316146115ff5760405162461bcd60e51b815260206004820152602560248201527f4552433732313a207472616e736665722066726f6d20696e636f72726563742060448201526437bbb732b960d91b606482015260840161053f565b6001600160a01b0382166116615760405162461bcd60e51b8152602060048201526024808201527f4552433732313a207472616e7366657220746f20746865207a65726f206164646044820152637265737360e01b606482015260840161053f565b61166c600082611434565b6001600160a01b03831660009081526003602052604081208054600192906116959084906122c9565b90915550506001600160a01b03821660009081526003602052604081208054600192906116c390849061229d565b909155505060008181526002602052604080822080546001600160a01b0319166001600160a01b0386811691821790925591518493918716917fddf252ad1be2c89b69c2b068fc378daa952ba7f163c4a11628f55a4df523b3ef91a4505050565b6001600160a01b03821661177a5760405162461bcd60e51b815260206004820181905260248201527f4552433732313a206d696e7420746f20746865207a65726f2061646472657373604482015260640161053f565b61178381611417565b156117d05760405162461bcd60e51b815260206004820152601c60248201527f4552433732313a20746f6b656e20616c7265616479206d696e74656400000000604482015260640161053f565b6001600160a01b03821660009081526003602052604081208054600192906117f990849061229d565b909155505060008181526002602052604080822080546001600160a01b0319166001600160a01b03861690811790915590518392907fddf252ad1be2c89b69c2b068fc378daa952ba7f163c4a11628f55a4df523b3ef908290a45050565b61186082611417565b6118c35760405162461bcd60e51b815260206004820152602e60248201527f45524337323155524953746f726167653a2055524920736574206f66206e6f6e60448201526d32bc34b9ba32b73a103a37b5b2b760911b606482015260840161053f565b6000828152600660209081526040909120825161067592840190611d3a565b816001600160a01b0316836001600160a01b031614156119445760405162461bcd60e51b815260206004820152601960248201527f4552433732313a20617070726f766520746f2063616c6c657200000000000000604482015260640161053f565b6001600160a01b03838116600081815260056020908152604080832094871680845294825291829020805460ff191686151590811790915591519182527f17307eab39ab6107e8899845ad3d59bd9653f200f220920489ca2b5937696c31910160405180910390a3505050565b6119bc848484611588565b6119c884848484611b13565b61103d5760405162461bcd60e51b815260040161053f906121b6565b60606119ef82611417565b611a535760405162461bcd60e51b815260206004820152602f60248201527f4552433732314d657461646174613a2055524920717565727920666f72206e6f60448201526e3732bc34b9ba32b73a103a37b5b2b760891b606482015260840161053f565b6000611a6a60408051602081019091526000815290565b90506000815111611a8a5760405180602001604052806000815250611ab5565b80611a9484611c20565b604051602001611aa59291906120bb565b6040516020818303038152906040525b9392505050565b805480611b0b5760405162461bcd60e51b815260206004820152601b60248201527f436f756e7465723a2064656372656d656e74206f766572666c6f770000000000604482015260640161053f565b600019019055565b60006001600160a01b0384163b15611c1557604051630a85bd0160e11b81526001600160a01b0385169063150b7a0290611b579033908990889088906004016120ea565b602060405180830381600087803b158015611b7157600080fd5b505af1925050508015611ba1575060408051601f3d908101601f19168201909252611b9e91810190611fe4565b60015b611bfb573d808015611bcf576040519150601f19603f3d011682016040523d82523d6000602084013e611bd4565b606091505b508051611bf35760405162461bcd60e51b815260040161053f906121b6565b805181602001fd5b6001600160e01b031916630a85bd0160e11b149050611317565b506001949350505050565b606081611c445750506040805180820190915260018152600360fc1b602082015290565b8160005b8115611c6e5780611c5881612347565b9150611c679050600a836122b5565b9150611c48565b60008167ffffffffffffffff811115611c9757634e487b7160e01b600052604160045260246000fd5b6040519080825280601f01601f191660200182016040528015611cc1576020820181803683370190505b5090505b841561131757611cd66001836122c9565b9150611ce3600a86612362565b611cee90603061229d565b60f81b818381518110611d1157634e487b7160e01b600052603260045260246000fd5b60200101906001600160f81b031916908160001a905350611d33600a866122b5565b9450611cc5565b828054611d469061230c565b90600052602060002090601f016020900481019282611d685760008555611dae565b82601f10611d8157805160ff1916838001178555611dae565b82800160010185558215611dae579182015b82811115611dae578251825591602001919060010190611d93565b50611dba929150611dbe565b5090565b5b80821115611dba5760008155600101611dbf565b600067ffffffffffffffff80841115611dee57611dee6123a2565b604051601f8501601f19908116603f01168101908282118183101715611e1657611e166123a2565b81604052809350858152868686011115611e2f57600080fd5b858560208301376000602087830101525050509392505050565b80356001600160a01b0381168114611e6057600080fd5b919050565b600060208284031215611e76578081fd5b611ab582611e49565b60008060408385031215611e91578081fd5b611e9a83611e49565b9150611ea860208401611e49565b90509250929050565b600080600060608486031215611ec5578081fd5b611ece84611e49565b9250611edc60208501611e49565b9150604084013590509250925092565b60008060008060808587031215611f01578081fd5b611f0a85611e49565b9350611f1860208601611e49565b925060408501359150606085013567ffffffffffffffff811115611f3a578182fd5b8501601f81018713611f4a578182fd5b611f5987823560208401611dd3565b91505092959194509250565b60008060408385031215611f77578182fd5b611f8083611e49565b915060208301358015158114611f94578182fd5b809150509250929050565b60008060408385031215611fb1578182fd5b611fba83611e49565b946020939093013593505050565b600060208284031215611fd9578081fd5b8135611ab5816123b8565b600060208284031215611ff5578081fd5b8151611ab5816123b8565b60008060408385031215612012578182fd5b823567ffffffffffffffff811115612028578283fd5b8301601f81018513612038578283fd5b61204785823560208401611dd3565b95602094909401359450505050565b600060208284031215612067578081fd5b5035919050565b60008060408385031215612080578182fd5b50508035926020909101359150565b600081518084526120a78160208601602086016122e0565b601f01601f19169290920160200192915050565b600083516120cd8184602088016122e0565b8351908301906120e18183602088016122e0565b01949350505050565b6001600160a01b038581168252841660208201526040810183905260806060820181905260009061211d9083018461208f565b9695505050505050565b602080825282518282018190526000919060409081850190868401855b8281101561219657815180518552868101516001600160a01b03908116888701528682015116868601526060808201519086015260809081015115159085015260a09093019290850190600101612144565b5091979650505050505050565b602081526000611ab5602083018461208f565b60208082526032908201527f4552433732313a207472616e7366657220746f206e6f6e20455243373231526560408201527131b2b4bb32b91034b6b83632b6b2b73a32b960711b606082015260800190565b60208082526024908201527f5072696365206d75737420626520657175616c20746f206c697374696e6720706040820152637269636560e01b606082015260800190565b60208082526031908201527f4552433732313a207472616e736665722063616c6c6572206973206e6f74206f6040820152701ddb995c881b9bdc88185c1c1c9bdd9959607a1b606082015260800190565b600082198211156122b0576122b0612376565b500190565b6000826122c4576122c461238c565b500490565b6000828210156122db576122db612376565b500390565b60005b838110156122fb5781810151838201526020016122e3565b8381111561103d5750506000910152565b600181811c9082168061232057607f821691505b6020821081141561234157634e487b7160e01b600052602260045260246000fd5b50919050565b600060001982141561235b5761235b612376565b5060010190565b6000826123715761237161238c565b500690565b634e487b7160e01b600052601160045260246000fd5b634e487b7160e01b600052601260045260246000fd5b634e487b7160e01b600052604160045260246000fd5b6001600160e01b0319811681146123ce57600080fd5b5056fea264697066735822122087f6c47765bd9921a436709a962d685901c1d4f31c725da65efa5f2df4a1689e64736f6c63430008040033",
  "linkReferences": {},
  "deployedLinkReferences": {}
}